:020000040800F2
:2020000000500020C17B0008BD7B0008BD7B0008BD7B0008BD7B0008BD7B000800000000CC
:20202000000000000000000000000000BD7B0008BD7B000800000000BD7B0008BD7B0008A0
:20204000BD7B0008BD7B0008BD7B0008BD7B0008BD7B0008BD7B0008BD7B0008BD7B000880
:20206000BD7B0008F5230008BD7B0008BD7B0008BD7B0008BD7B0008BD7B0008BD7B000880
:20208000BD7B0008BD7B0008BD7B0008BD7B000809870008BD7B0008BD7B0008BD7B0008E8
:2020A000BD7B0008BD7B0008BD7B0008BD7B0008BD7B0008BD7B0008BD7B0008BD7B000820
:2020C000BD7B0008BD7B0008BD7B0008BD7B0008BD7B0008BD7B00082D670008BD7B0008A4
:2020E000BD7B0008BD7B0008BD7B0008000000000000000000000000000000000000000020
:2021000000000000000000005FF808F1044B05481B1A062B02D9044B03B11847704700BFBA
:202120008B010020880100200000000005490648091A891001EBD171491002D0034B03B197
:202140001847704788010020880100200000000010B5064C237843B9FFF7D8FF044B13B189
:202160000448AFF300800123237010BD880100200000000058E3000808B5084B1BB1084855
:202180000849AFF300800848036813B9BDE80840CCE7064B002BF9D09847F7E700000000A3
:2021A00058E300088C0100208401002000000000134B002B08BF114B9D46A3F5803A002188
:2021C0008B460F461148124A121A08F0EDFB0D4B002B00D098470C4B002B00D09847002095
:2021E000002104000D000B4808F079FB08F0A6FB2000290000F0FAFB08F078FB00000800B4
:20220000000000000000000000000000880100205013002015A9000810B5044640F26B31EF
:2022200002F0FEFD04F1100204F16001002302F8013B8A42FAD1F022A4F86030A4F86230F8
:20224000A4F8642084F8663084F86730204610BD222A70B506460C460ED102F0F4FD2028ED
:202260000CD904F1210514F8011F304602F02EFEAC42F8D1002070BD042070BD052070BDF7
:2022800037B50D4608242B064CBF012300238DF8073007480DF1070101220023013C01F0CB
:2022A000CDFF6D0014F0FF04EDB2ECD103B030BD2C03002080F8671070470000094B1B7806
:2022C000622B0BD100F10F0300F130025F2103F8011F9342FAD12123A0F860300023A0F80D
:2022E00062307047300C002090F8673070B50446B0F860502BB1B5B980F86650FFF7DEFF08
:2023000011E085B902F0C1FD68B12B4B1B78002B39D1012384F86630B4F86430A4F86030E5
:202320000023A4F86230B4F86030002B42D0234801F0A8FF0546082D24D994F866303BB145
:20234000B4F8623020460133A4F862305F2107E02046B4F862305A1C2344197CA4F86220DC
:20236000FFF78EFFB4F86220B4F86030083D9A42ADB2E0D30023A4F86230A4F8603084F844
:20238000663070BD70BD84F8665004F10F0604F13005204602F0C0FD06F8010FAE42F8D10B
:2023A0000023074A9A5C0133272B05F8012FF8D14823B3E770BD00BF860D00202C03002044
:2023C00008AF000808B502F03EFD2323B0FBF3F080B208BD01EB4101890001F51671A0F8BD
:2023E000641070470C235843431E18460138FDD87047000008B5082005F01AFB38B1044840
:2024000003F048FCBDE80840082005F01FBB08BD2C0300202DE9F04F87B003A805F011FA56
:20242000844F1D20012104F07BFE834801210324102505F047FA4FF4C056384603A9ADF856
:202440000C608DF80E408DF80F5005F0ACF938464FF40061002205F012FA002238464FF497
:20246000805105F00CFA42F21070FFF7BBFF4FF0040803A93846ADF80C608DF80F8005F09D
:2024800092F900206D4E04F0C7FD01214FF4000004F052FE4FF4407005F096F82023304646
:2024A00003A9ADF80C308DF80E408DF80F5005F07AF94023304603A9ADF80C308DF80E4037
:2024C0008DF80F5005F06FF98023304603A9ADF80C308DF80F804FF4807B8DF80E4005F0FB
:2024E00062F9304603A98DF80E40ADF80CB08DF80F5005F058F9524B4FF4804A184603A94D
:2025000001938DF80E40ADF80CA08DF80F5005F04AF9304603A98DF80F804FF008098DF8DC
:202520000E40ADF80C5005F03EF9304603A98DF80F808DF80E40ADF80C9005F034F9019B18
:202540004FF40058184603A9ADF80C808DF80E408DF80F5005F027F94FF40073304603A901
:20256000ADF80C308DF80E408DF80F5005F01BF94FF48053304603A9ADF80C308DF80E40CE
:202580008DF80F5005F00FF9304603A9ADF80C808DF80E408DF80F5005F005F902233046C2
:2025A00003A9ADF80C304FF001088DF80E408DF80F5005F0F8F8304603A98DF80E40ADF810
:2025C0000C808DF80F5005F0EEF8384603A98DF80E40ADF80CB08DF80F5005F0E4F8304627
:2025E00003A98DF80E40ADF80CA08DF80F5005F0DAF84FF40043304603A9ADF80C308DF852
:202600000E408DF80F5005F0CEF84046214605F089F900230DEB0500CDF810908DF814301B
:202620008DF815508DF8168005F0A6F907B0BDE8F08F00BF0008014000023000000C01409F
:202640000010014007B509238DF804300F22012301A88DF805308DF806208DF8073004F075
:20266000BDFF03B05DF804FB07B503238DF806301023ADF8043001B90423044801A98DF892
:20268000073005F090F803B05DF804FB000C01400A460248202105F0F2B800BF000C0140AC
:2026A0000A460248402105F0EAB800BF000C014008B58021034805F0CCF8431E5842584186
:2026C00008BD00BF000C01400A4602484FF4807105F0D5B8000C01400A4602484FF48041EE
:2026E00005F0CDB80010014008B51021034805F0B0F8431E5842584108BD00BF000C0140D4
:2027000008B50821034805F0A4F8431E5842584108BD00BF000C01400A460248102105F0D2
:20272000AEB800BF000C01400A460248082105F0A6B800BF000C01400A4602484FF40051D7
:2027400005F09DB8001001400A4602484FF4007105F095B8000C01400A4602484FF4805153
:2027600005F08DB8000C01400A4602484FF4005105F085B8000C01400A460248022105F073
:202780007EB800BF000C01400A460248012105F076B800BF000C01400A4602484FF480713E
:2027A00005F06DB800080140704700000A4602484FF4804105F063B8000C01400A4602486A
:2027C0004FF4004105F05BB8000C014042F21070FFF708BE4FF49670FFF704BE0846FFF76B
:2027E00001BE00BF00BF00BF70477047B1F5006F10D34FF4802321F4FF6222F007024AB105
:202800000B4201D15B08FBE740F67542D80A42435140F0E70846704710B54C780B78E400A3
:2028200004EBC3238C7803EB54142146FFF7DEFF034B53F8203003B15C40C4F3C72010BD8B
:2028400030B10008F7B51F460B7B4D7B0C7DC97C9B0043EA95138900AD0025F03F0501F072
:202860003C01294341EA9411A4008DF8051024F00F0401A916468DF804308DF80640FFF7FA
:20288000CBFF030900F00F003370387003B0F0BD70B502F00F021C7B42EA0111124AC9B2E4
:2028A00024F03F0432F8110044EA91041C735C7BC5B2AE0804F00F0406F0300244EA811141
:2028C00011431A7D5973D97C02F00302800A06F00F0621F00F0142EA851200F03C003143DC
:2028E0001043D974187570BD30AF0008014800F039BC00BF9808002038B52A4801F07EFD1F
:20290000294800F03FFC294B294C1B782BB12378012B02D1274802F0FBF8274B274D1B785C
:202920003BB12378022B04D12B7813B92448FFF7DBFC244B1B782BB12378032B02D1224882
:2029400001F018FF214B1B782BB12378042B02D11F4802F0F3F91F4B1B782BB12378052B0E
:2029600002D11D4803F0EAFD1C4B1B7833B12378062B12D01A4804F047F970B92B78622BCA
:2029800001D05C2B02D1174802F036FC237843B9BDE83840144804F0EFB9114804F070F927
:2029A000ECE738BD2C03002098080020080000207C0A00202807002007000020300C0020A0
:2029C0008C0D002005000020C40C002009000020800A002004000020D40600200A0000200E
:2029E0009C090020610D0020F801002008B5FFF77DFFFFF781FFFCE708B5174800F09EFF3A
:202A0000164801F025FF164802F03EFE1548FFF703FC154802F057FD144801F05FFE1448BC
:202A200003F0C6FF134802F034F9134802F088FA124803F035FD124804F0CCF8114802F0B9
:202A400059FB114804F089F9104800F023F8BDE808400F4801F092BB7C0300202807002080
:202A6000380C00208C0D0020980B0020C40C0020A0070020800A0020A8010020D406002052
:202A80009C090020610D0020F8010020980800202C030020024600F58071002302F8013B34
:202AA0008A42FAD180F8003180F8013180F8023180F8033170471FB570228DF80E2082780B
:202AC000E0238DF80F2000228DF80C3000920423012103AA8DF80D3003F04AFF05B05DF8CC
:202AE00004FB1FB57F228DF80A208278E0238DF80B2000228DF808308DF80C1005230092CC
:202B0000012102AA8DF8093003F032FF05B05DF804FB00002DE9F047824686B0564801F022
:202B2000D8FD00228DF80B20544AE0238DF8083011780D238DF8093001238DF80A3091465F
:202B400009B18DF80B304E4B1A7898462AB19DF80B3043F002038DF80B304A4F3B782BB127
:202B60009DF80B3043F004038DF80B30464E33782BB19DF80B3043F008038DF80B30434D12
:202B80002B782BB19DF80B3043F010038DF80B303F4C23782BB19DF80B3043F020038DF833
:202BA0000B303C4B34481B788DF80C303A4B1B788DF80D3001F06CFB28B19DF80D3043F073
:202BC00004038DF80D302C4801F05FFB28B19DF80D3043F008038DF80D3099F800302BB125
:202BE0002E4802F04EF88DF80E0001E08DF80E3098F8003043B10A2329488DF80F30FFF7E4
:202C0000E1FB8DF8100003E08DF80F308DF810303B782BB1234801F013FE8DF8110001E064
:202C20008DF8113033782BB11F4802F0F1F88DF8120001E08DF812302B782BB11B4803F0F1
:202C400005FD8DF8130001E08DF8133023782BB1174804F07AF88DF8140001E08DF81430B2
:202C6000002300935046012102AA0D2303F080FE06B0BDE8F08700BF2C0300200800002091
:202C8000070000200500002009000020040000200A0000207C0A0020860D002028070020C9
:202CA0008C0D0020C40C0020800A0020D40600209C09002010B5E0239CB08DF80C3000220B
:202CC00001238DF80E208DF80F300A4CD1B2615C131DDBB2013221B11CAC234403F8641C57
:202CE000F3E7009103AA01218DF80D3003F040FE1CB010BD30D100082DE9F04F0C2A8BB03F
:202D000080460B4601D804200CE109780591C1F3001180F802119D7893F801C0322DF2D8C1
:202D2000DC780CF001010791062CCCF34011CCF34006CCF38007CCF3C009CCF3001A089122
:202D400008D9A4F16201012923D95C2C21D0602CD9D11EE0012C01D1079918E0022C02D12F
:202D6000002ED0D015E0032C02D1002FCBD010E0042C03D1B9F1000FC5D00AE0052C03D193
:202D8000BAF1000FBFD004E0062C02D108990029B9D099790F290991B5D859796348891027
:202DA0000F2A017093F80AB0597A93F80BC093F80CE004D9112AD87B04D95B7C03E08020E2
:202DC000034600E08023059A0190C2F3C00206920293039256485A466346CDF800E003F03F
:202DE00071FADFF88CB19DF81C3052485249534A8BF800300670524B9DF820600F70514FA7
:202E00005C2C83F800A082F800903E70079306468A4691464C4B03D004F0FD02602A13D1FF
:202E20000122327002221A70484B1C7098F8033113B13F4803F07CFA602C09D13C4802217B
:202E4000012203F00DF803E01C70404B00221A70059B3F4ADB43C3F3C013137023B13B4B04
:202E60001B780BB9632C5AD13A48294601F002FF3948294601F0DCFC3848294601F0C0FF06
:202E80003748294603F0DAFB3648294603F050FF35482946FFF79EFA3448099902F08AFD3C
:202EA0002348069901F012FC98F803312BB15C2C28D004F0FD03602B24D09BF800301BB1E7
:202EC00001211B480A461BE0337813B11848022115E09AF8003013B1154803210FE099F8B4
:202EE000003013B11248042109E0079B1B7813B10F48052103E03B7823B10D4806210122F7
:202F000002F0AEFF0A4801F06FFB5C2C03D004F0FD04602C05D1012388F8033101E00620D4
:202F200000E000200BB0BDE8F08F00BF060000202C03002007000020050000200900002009
:202F4000040000200A0000207C0A0020300C0020600D002028070020C40C0020800A0020AB
:202F6000D40600209C0900208C0D0020380C002008000020082AF7B50846174630D9C4787F
:202F8000092A18BF4B7A4A7889784FEA0444C57944EA012141EA02018479027946794FEAF2
:202FA000054545EA042441EA0261027A44EA060444EA026208BFFF230D2F91BF1046047B52
:202FC000C67A857A81BF2404407B44EA06242C4388BF44EA00600090034801F05DF900E0F1
:202FE000042003B0F0BD00BF2C03002038B54B1E0C46052B38D8DFE803F00328070E182520
:20300000234802F065FB23E0214802F061FB214800F0CFFC1FE01E4802F05AFB1D4800F014
:20302000C8FC1D4802F068FA18E0194802F050FB184800F0BEFC184802F05EFA174803F077
:20304000D0FC0EE0124802F043FB124800F0B1FC114802F051FA114803F0C3FC104801F04B
:2030600087FF104803F038FF0F4B1C701D4644B10E4B1B78A34204D00D482146012202F094
:20308000EFFE29780A48BDE8384001F089B900BF380C00207C030020980B0020A0070020B4
:2030A000A8010020F80100207C0A00202A0300202C03002010B50446002A3FD0204B0978B8
:2030C0001B788B4238D0062908D963292CD05C291ED001F0FD03602B30D119E0012901D10B
:2030E000184B12E0022901D1174B0EE0032901D1164B0AE0042901D1154B06E0052901D1A0
:20310000144B02E006290FD1134B1B78B3B10BE00D4B01221A70114B197094F803313BB189
:203120000F4803F005F903E00C4B00221A7000E002212046FFF75AFF002010BD042010BDCB
:203140007C0A002008000020070000200500002009000020040000200A000020300C002082
:203160002C03002010B5044601214FF4E13203F0CDFB2046BDE8104003214FF4165203F0A1
:20318000C5BB000037B504462046012103F0CCFB0546002800F076812046012103F0D6FB91
:2031A00094F8002152B9E02803BF0123207084F8003184F8002184F80121E5E7012A06D123
:2031C0000223607084F8010184F80031DCE7531C94F80111DBB29942A05484F80031D3D152
:2031E000A178132900F0BE801DD804295DD00ED8012944D047D3022949D0032940F0388166
:20320000023A2046E11CD2B2FFF754FF45E00A2963D002D808294FD02AE1102976D01129C9
:2032200000F08F8024E1202900F0C2800CD81A2900F0A48003D8182900F01E8118E11C39DB
:20324000022940F2198113E1402900F0E18006D8302900F0C580312900F0C28008E150296F
:2032600000F0EB80802940F0038100220321033B0092204662189BB203F07AFBFCE02046A9
:20328000FFF748FCF8E02046FFF714FDF4E0023A2046E11CD2B2FFF72FFD0146002840F0F7
:2032A000E5802046FFF707FCE6E0023A2046E11CD2B2FFF75FFEF0E77E4B1B78622B01D07D
:2032C0005C2B06D1023AE11CD2B27B4801F0B4FFE3E7602B40F0C980E3E7784B1B789BB92A
:2032E000774B0122774861211A7002F0B9FD94F80121E11C033A7448D2B203F085FD014692
:20330000002800F0B980B1E00521AFE06F4B1B78002B00F0AA80694D2B78012B00F2A580E8
:20332000023A6B48E11CD2B201F0ACFA0146002840F09C802B78002B40F09E802046012127
:2033400033E0624B1B78002B00F08F805B4D2B78012B00F28A80023AE11CD2B25C4801F02B
:20336000ADFAE3E7594B1B78002B7ED0534D2B78012B7AD8564801F0BDFAD7E7554B1B7834
:20338000002B72D04D4D2B7813F0FD0F6DD1023AE11C5148D2B2FEF75BFF0146002865D1EC
:2033A0002B78002B68D120460221FFF71FFE63E04A4B1B78002B58D0404D2B780BB1032B92
:2033C00053D1023AE11C4648D2B201F0A1F9014600284BD12B78002B4ED120460321E4E726
:2033E000404B1B78002B40D0344D2B7813F0FB0F3BD1023AE11C3C48D2B201F064FC01465E
:20340000002833D12B78002B36D120460421CCE7364B1B784BB3294D2B780BB1052B24D161
:20342000023AE11C3248D2B203F056F80146E8B92B780BBB20460521B7E72E4B1B78A3B139
:203440001E4D2B780BB1062B0FD12B4B0121023A19702A48E11CD2B203F0DFFB014628B94C
:203460002B784BB9204606219FE70221204601E020460121FFF735FB002384F8003184F82E
:20348000013181E60F4801F027F94BF67F33984203D984F8005184F801512046032103F06A
:2034A00043FA20B12046032103F050FAF5E703B030BD00BF300C0020610D00207C0A00206C
:2034C000D00600202C030020F80100200800002028070020070000208C0D00200500002012
:2034E000C40C002009000020800A002004000020D40600200A000020C00C00209C09002010
:2035000070B5164B90B01B78012B24D8144B1B780BB30D46E0238DF80C3010238DF80E306D
:20352000CEB2ECB2C6F103032344A41BE4B29442DBB206D215F8014B10AE334403F8344CB0
:20354000EEE7D31C0022DBB20092012103AA8DF80D3003F00DFA10B070BD00BF7C0A002089
:203560000800002070B5164B88B01B78012B24D8144B1B780BB30D46E0238DF80C301123AF
:203580008DF80E30CEB2ECB2C6F103032344A41BE4B29442DBB206D215F8014B08AE334410
:2035A00003F8144CEEE7D31C0022DBB20092012103AA8DF80D3003F0DBF908B070BD00BFAF
:2035C0007C0A0020080000201FB50C4B1B78012B11D80B4B1B7873B11222E0238DF80E2053
:2035E00000228DF80C3000920323012103AA8DF80D3003F0BDF905B05DF804FB7C0A002047
:20360000080000201FB50C4B1B78012B11D80B4B1B7873B11322E0238DF80E2000228DF810
:203620000C3000920323012103AA8DF80D3003F09FF905B05DF804FB7C0A002008000020A3
:2036400070B5184C8CB0247814F0FD0F28D1164C24782CB3154600294FF0E00414BF1A216E
:2036600018218DF808408DF80A10D6B2E9B2C6F103040C44891BC9B29942E4B206D215F8FF
:20368000011B0CAE344404F8281CEEE700220333DBB20092012102AA8DF8093003F068F970
:2036A0000CB070BD7C0A0020070000201FB50E4B1B7813F0FD0214D10C4B1B788BB100295E
:2036C0004FF0E00314BF1B2119218DF80C308DF80E1003230092012103AA8DF80D3003F0DF
:2036E00047F905B05DF804FB7C0A00200700002070B5164BA4B01B78032B00D023BB144B0C
:203700001B780BB30D46E0238DF80C3020238DF80E30CEB2ECB2C6F103032344A41BE4B2A4
:203720009442DBB206D215F8014B24AE334403F8844CEEE7D31C0022DBB20092012103AA0D
:203740008DF80D3003F014F924B070BD7C0A0020050000201FB50D4B1B78032B00D08BB9DA
:203760000B4B1B7873B12122E0238DF80E2000228DF80C3000920323012103AA8DF80D3017
:2037800003F0F6F805B05DF804FB00BF7C0A00200500002070B5164BA0B01B7813F0FB0F3F
:2037A00024D1144B1B780BB30D46E0238DF8083030238DF80A30CEB2ECB2C6F103032344FD
:2037C000A41BE4B29442DBB206D215F8014B20AE334403F8784CEEE7D31C0022DBB20092F7
:2037E000012102AA8DF8093003F0C2F820B070BD7C0A00200900002070B5164BC2B01B7839
:2038000013F0FB0F24D1144B1B780BB30D46E0238DF80C3031238DF80E30CEB2ECB2C6F1F3
:2038200003032344A41BE4B29442DBB206D215F8014B42AE334403F8FC4CEEE7D31C0022A2
:20384000DBB20092012103AA8DF80D3003F090F842B070BD7C0A0020090000201FB50C4B24
:203860001B7813F0FB0210D10A4B1B786BB1E02332218DF80C308DF80E100323009201213C
:2038800003AA8DF80D3003F073F805B05DF804FB7C0A00200900002070B5164BA4B01B7816
:2038A000052B00D023BB144B1B780BB30D46E0238DF80C3040238DF80E30CEB2ECB2C6F168
:2038C00003032344A41BE4B29442DBB206D215F8014B24AE334403F8844CEEE7D31C002298
:2038E000DBB20092012103AA8DF80D3003F040F824B070BD7C0A0020040000201FB50D4BF6
:203900001B78052B00D08BB90B4B1B7873B14122E0238DF80E2000228DF80C30009203230F
:20392000012103AA8DF80D3003F022F805B05DF804FB00BF7C0A00200400002000230370C1
:20394000436000F1080200F16C01002302F8013B8A42FAD1C366036743678367C367C0F872
:203960008030C0F8843000F5987200F18803002143F8041B9342FAD100F5EC72002143F8E6
:20398000041B9342FAD100F52072002143F8041B9342FAD100F54A72002143F8041B9342C5
:2039A000FAD100F25232002103F8011B9342FAD17047002303704360C366036770470000B4
:2039C0002DE9FF41D0F880C00D68D0F878800F69446F674408EB050E7745D4BF0097CDF8CD
:2039E00000E0E308BE45B4BF3C4D3D4D4FEA830304F00702B3BFC718C618AF5CAE5CABBF09
:203A0000D6F88850D7F888502F433540ACBFC6F88870C7F888504E684D6946446544B54224
:203A2000D4BF01950196AE42B4BF2C4D2C4D00EB0306B5BFAD5CAD5CD6F83071D6F8307119
:203A4000B4BF3D403D43C6F83051D0F87CC0D0F884E08F688E6967447644BE42D4BF029609
:203A60000297B742B4BF1D4D1D4D00EB0307ABBFAE5CAE5CD7F8D851D7F8D851ADBF2E432D
:203A80003540C7F8D851C7F8D861CD68C96965447144A942D4BF039103958D42B4BF0F49C8
:203AA0000F490344B5BF8A5C8A5CD3F88012D3F88012B4BF0A400A43C3F88022009B013436
:203AC0008367019B4467C367029BC0F88030039BC0F8843004B0BDE8F08100BFFCD6000819
:203AE00004D7000870B591E8180088B0E11884F0010683F00102B51833442244009105913A
:203B00006946019502930392049506920793FFF757FF08B070BD0000002340F2491219462B
:203B200070B503294CD8DFE801F0020E1F35264D02F007042D5DD410223450F824402542AD
:203B400018BF02211CE0204C02F00701655CD1104C3150F8211003F007060D420CBF002136
:203B6000022100EBD30524E0174C02F00701645CD110763150F821100C420CBF01210321DE
:203B8000124E03F0070400EBD305365D95F82843344012E00C4E02F00704355DD410A03472
:203BA00050F82440254208BF012100EBD30503F00704365D95F82843344385F8284301332A
:203BC00012F1FF32ADD270BD04D70008FCD600084FF0FF3330B54C1E01F1260514F8012F2F
:203BE000C3F307205A400C4BD2B233F81230AC4280EA03000346F1D1C04391F82720C3B258
:203C00009A4207D191F82830C0F30720C31A5842584130BD002030BD1CD700082DE9F041E9
:203C20000446154698B04A1E00238A481E5C12F8010F01337040532B1070F6D100220023B8
:203C400003A813540132542AF9D1834EB64606EB43020732B3F5257F80F2A880D810085C69
:203C6000C70710D512F8077C0DF1600C12F8068C67444FF0800C2CFA08FC17F8548C4CEA39
:203C8000080C07F854CC870710D512F8057C0DF1600C12F8048C67444FF0800C2CFA08FC4F
:203CA00017F8548C4CEA080C07F854CC470710D512F8037C0DF1600C12F8028C67444FF004
:203CC000800C2CFA08FC17F8548C4CEA080C07F854CC070710D512F8017C0DF1600C92F868
:203CE000008067444FF0800C2CFA08FC17F8548C4CEA080C07F854CC1F1DB7F5257F02F1CD
:203D0000080251DAC20611D516F817200DF1600C0EEB4707624497F801C0802727FA0CF709
:203D200012F854CC47EA0C0702F8547C820612D55F1D16F817200DF1600C0EEB47076244C4
:203D400097F801C0802727FA0CF712F854CC47EA0C0702F8547C470612D59F1D16F81720DB
:203D60000DF1600C0EEB4707624497F801C0802727FA0CF712F854CC47EA0C0702F8547C99
:203D800002060FD5D81D16F810200EEB400E18AE32449EF801608020F04012F8546C30437D
:203DA00002F8540C083350E73B4653E700231E46A367E367C4F88030C4F88430636718AB38
:203DC00003EBE60306F0070013F8543C8021C14019401CBF012202924FF0400222FA00F258
:203DE00008BF0291134018BF0123204601A902360193FFF777FEB6F5257FE0D12046FFF778
:203E00008BFE6B1E05F12801002203F8012F8B42FAD1C2F5A4730133104803F0070104EB48
:203E2000E303415C93F82833194207D0D30802F0070001218140E85C0143E9540132B2F591
:203E4000A57FE6D120462946FFF7C2FE18B0BDE8F08100BFA1D6000879D1000804D70008AB
:203E600001482922FFF74CBB9808002030B542688DB0520004464260C36E81B342F001024D
:203E8000D9081C4D426003F007006218285C127A024301332144B3F5257F0A72E36627D1CB
:203EA00004F108052046294601AAFFF7B7FEA0B11148012100F0FAFB204601A9FFF7D0FF4F
:203EC000284600210E2206F06FFD0023E366022323704FF4165323670AE0207008E0D90824
:203EE000064D03F007006218285C127A0240D0E70DB030BD14D700082C0300200CD700081B
:203F000001480C22FFF72EBB98080020436870B55B00044609B143F001036360606880F02A
:203F2000AA3001F0ADF9022803D81E4A0023136036E0606820F07F431B48584001F0A0F9D8
:203F4000022809D804F108000021532206F02CFD0023E366012323E0606820F07F4313481C
:203F6000584001F08DF90646D8B91148012100F09DFB104A04F1080513682046A360536857
:203F80002946E36093682361FFF7BAFF284631460E2206F009FD4FF416532367E666022389
:203FA000237070BD880D00205076550068B4AA002C0300201CD900084268F8B5520004466C
:203FC0004260C36E00297CD042F00102D908424D426003F007006218285C127A0243214424
:203FE00001330A723D48E3666368584001F048F9012809D83A48002100F058FB3948FFF747
:020000040800F2
:2040000001FB00232370F8BDE36E5C2B01D800260EE0606820F07F433348584001F030F9AD
:204020000328F4D86023E3664FF4165323670126E36E602B16D1AEB901256FF07F4222FAD4
:2040400005F06268EFB202402748E840504001F017F9032803D8E36EDB1BE36602E00135E8
:20406000042DEAD1256F013D256745B91C48294600F01CFB1B48FFF7A7FA2570F8BDE36E89
:20408000602B27D104F1080556B1552363742D23A3741623E37420462946FFF731FF04E06F
:2040A000104829460C22FFF75DFA0D48012100F0FDFA284600210E2206F076FC0023E366CD
:2040C000F8BDD908094D03F007006218285C127A024084E7F8BD00BF14D700085E13AAAA97
:2040E0002C0300209808002068B4AA000CD700080378012B05D002D3022B04D07047FFF701
:2041000005BFFFF7B3BEFFF757BFF8B50546062600277D2428464FF47A71FEF75FFB013C54
:20412000F8D187F00104E4B228463946FEF704FB28462146FEF73AFB28462146FEF70CFBF3
:2041400028462146FEF710FB28462146FEF714FB28462146FEF718FB28462146FEF71CFBF3
:2041600028462146FEF720FB28462146FEF726FB013E01D02746CCE7F8BD000070B504461B
:20418000002505724FF480610C3001F0B3F801264FF4806104F1200001F0ACF8204684F8B0
:2041A0003450A56384F83C50256484F8445084F84B60E564FEF72EF920463146FEF78CFAEE
:2041C00020463146FEF7B8FA20462946FEF7EEFA20462946FEF7C0FA20462946FEF7C4FA9D
:2041E00020462946FEF7C8FA20462946FEF7CCFA20462946FEF7D0FA20462946FEF7D4FA77
:2042000020462946FEF7DAFA20462946FEF79CFA20462946FEF73CFA20462946FEF740FA9C
:2042200020462946FEF750FA2046FFF76EFF024B20461D6070BD00BF880D00202DE9F04189
:204240001E46037A054688461746B3B10024BC420BD005F1200018F804100EB9324600E04D
:20426000325D01F09FF80134F1E7054C237823B9284601F0B7FD01232370BDE8F08100BFB3
:20428000860D0020203001F04AB8203001F016B90C3001F013B9000070B50E4619461546EC
:2042A000049C02F009F82F4B2F4A334493421ED92C4B2B4493421AD92C4B2D4A334493424D
:2042C00015D92A4B2B44934211D92A4B2A4A334493420CD9274B2B44934208D9274B284AB8
:2042E0003344934203D9254B2B44934238D81D4B1D4A234493420ED91C4B1D4A23449342D6
:2043000009D91C4B1C4A2344934204D91B4B1C4A2344934224D81B4B1B4A334493421FD9C2
:20432000184B2B4493421BD91849194B3144994216D916492944994212D9124921449142B9
:204340000ED902F1664202F5762222449A4207D9104B00201E60104B1D60104B1C6070BD55
:20436000042070BD00BC6AF7FF083D00004FF7E6BF3B47034053F2F27F8D5B008019D0CD07
:20438000FFF26F06C0444FF7400D0300406D12E6C0C62D00000E0020F40D0020F80D002051
:2043A00038B50C4605464B1E59425941FEF7D4F9A21E514251412846FEF7D6F9A4F1030E56
:2043C000DEF1000141EB0E012846FEF7D5F9A4F1040CDCF10001284641EB0C01FEF7D4F9C5
:2043E000631F594228465941FEF7D6F9A21F51422846BDE838405141FEF7D6B9836B37B505
:20440000027A013304468363FAB1C36CB3F5964F0AD3684A1378013B042B03D80021117053
:20442000FFF7BEFF0023E36445F6BF53A26B9A4219D994F84B10002381F00101A36384F838
:204440004B102046FEF778F90DE05B498B4240F2AE8090F84B10826381F0010180F84B1069
:20446000FEF76AF9A3E004F1200000F07AFF534DB0B9534B1B789BB1524B1A7842B11870B3
:2044800094F8453023B150482978012201F0E8FC4E4B1A78002A7DD12046002101F0C0FC3F
:2044A0002B78022B4A4B08BF4FF47062196818BF4FF4F06291422AD300221A603D4B1B7847
:2044C0002BBB236C1BBB94F83C3003B33D4B1B78EBB93E4B1B78D3B994F8443094F845109B
:2044E0000133B3FBF1F201FB123384F84430DBB2234493F846102046FFF752FF94F8443044
:204500003148234493F84610012201F0A9FC0C34204600F026FF002849D020460DF10601BA
:204520000DF1070200F08CFF2B78013B042B3ED8DFE803F0030C151E27009DF8061025489A
:20454000003118BF0121FFF7D3FD30E09DF806102148003118BF012101F038FA27E09DF85E
:2045600006101E48003118BF012101F087F81EE09DF806101A48003118BF012102F024FBDF
:2045800015E09DF806101748003118BF012100F0ABFD0CE000221A7094F84530002B3FF463
:2045A0007BAF09482978012201F05AFC74E703B030BD00BF7C0A00207FA903002A0300209D
:2045C000860D0020D00600202C030020C00C0020880D00207C030020380C0020980B00207C
:2045E000A0070020A8010020002310B580F84530284B04461B7823B1012380F8463080F8A8
:204600004530254B1B7843B194F845300221E218013382F8461084F84530204B1B7843B129
:2046200094F845300321E218013382F8461084F845301B4B1B7843B194F845300421E21859
:20464000013382F8461084F84530164B1B7843B194F845300521E218013382F8461084F8DC
:20466000453094F84530012B03D9012384F83C3007E0002384F83C300B4B20461978FFF77B
:204680008FFE237A23B92046FDF7DCFF0123237210BD00BF08000020070000200500002026
:2046A00009000020040000207C0A002038B5064B0D461C788C421C4603D001230364FEF75F
:2046C0007DF8257038BD00BF7D0A002080F8341070470023C3647047C06C704710B504460F
:2046E00040F2DC5100F09CFB04F1100204F19201002302F8013B8A42FAD1F022A4F89230E5
:20470000A4F89430A4F8962084F89830204610BD792A70B506460C460ED100F094FB77280D
:204720000CD904F1780514F8011F304600F0CEFBAC42F8D1002070BD042070BD052070BD20
:2047400037B50D4608242B064CBF012300238DF8073007480DF1070101220023013CFFF7E1
:204760006DFD6D0014F0FF04EDB2ECD103B030BD2C03002070B5044600F087FBB4F89230C1
:2047800008B903B970BDF3B9274A12783AB9012384F89830B4F89630A4F8923010E084F831
:2047A00098307825B4F892602046731CA4F8923000F0B2FB013D264415F0FF053074F1D1EF
:2047C0000023A4F89430B4F892305BB31748FFF759FD0546082D24D994F898303BB1B4F8C6
:2047E000943020460133A4F89430772107E02046B4F894305A1C2344197CA4F89420FFF7EE
:204800009FFFB4F89420B4F89230083D9A42ADB2E0D30023A4F89430A4F8923084F89830D4
:2048200070BD70BD70BD00BF860D00202C03002001EB4101890001F51671A0F89610704707
:2048400008B500F000FB7823B0FBF3F080B208BD10B504464FF47A7100F0E2FA04F1100280
:2048600004F16A01002302F8013B8A42FAD13C22A4F86A30A4F86C30A4F86E2084F87030D6
:20488000204610BD292A70B506460C4612D100F0DAFA292810D93046002100F017FB651ED2
:2048A000283415F8011F304600F010FBA542F8D1002070BD042070BD052070BD0C2A70B503
:2048C00006460C4612D100F0BEFA0C2810D93046012100F0FBFA651E0B3415F8011F3046B0
:2048E00000F0F4FAA542F8D1002070BD042070BD052070BD10B5044600F0A5FA28B120465D
:20490000022100F0E3FA002010BD052010BD00002DE9F043002097B0002301AC0355135489
:2049200001305328F8D11C461D461846234611F805E02E0100270124BC401EEA040F14BF23
:204940000124002404EB000C18442044C0070CF0010C0ED5DFF8788106F0070018F8009033
:2049600016A800EBD60010F8548C49EA080800F8548CBCF1000F10D0701C0DF1580CDFF854
:2049800050810CEBD00C00F0070018F800801CF8540C48EA00000CF8540C0137082F06F17C
:2049A0000206184601D02346C5E701352A2DBCD10021454C264604EB41030733B1F5257FBC
:2049C00074D216A800EBD10010F8540C07060AD513F8067C13F807EC0125BD4012F80E708D
:2049E0003D4302F80E5045060AD513F8047C13F805EC0125BD4012F80E703D4302F80E50AB
:204A000087060AD513F8027C13F803EC0125BD4012F80E703D4302F80E50C50609D51F78E4
:204A200013F801EC0125BD4012F80E703D4302F80E500D1DB5F5257F03F1080334D2030774
:204A400009D514F8157006EB45056D780123AB40D55D2B43D35547070AD54B1D14F81370CC
:204A600006EB43035D780123AB40D55D2B43D35585070AD58B1D14F8137006EB43035D78A5
:204A80000123AB40D55D2B43D355C3070AD5CB1D06EB430614F81340707801238340105DD9
:204AA00003431355083184E7294687E7013A00230649585C12F8011F01334140532B117088
:204AC000F6D117B0BDE8F08328D9000850DE0008ABDE000873B50E460825012404EA06039B
:204AE000A3420CBF012300238DF8073007480DF1070101220023013DFFF7A0FB640015F030
:204B0000FF05E4B2EAD102B070BD00BF2C03002070B5A2B0044600F0B8F920B9B4F86A30D2
:204B2000002B00F09E80204600F0F1F9B4F86A5090BB002D68D14C4B1B782BB9012384F837
:204B40007030B4F86E305AE084F87050204600F0E3F9204600F0E0F901A948550135292DC1
:204B6000F7D120460DF13202FFF7D2FEEA238DF83030B4F86A10A6238DF831300023CA1843
:204B80000CA8185C92B201332244552B1074F6D15531A4F86A1034E0012815D1A5BB84F8A9
:204BA0007050204600F0B8F90C25B4F86A602046731CA4F86A3000F0AFF9013D264415F017
:204BC000FF053074F1D11CE002281DD1E5B984F87050204600F0A0F9B4F86A3003F1120042
:204BE00080B20022214D9918555D89B201322144062A0D74F6D106339BB28342F1D1A4F89C
:204C00006A300023A4F86C30B4F86A304BB31848FFF738FB0546082D23D994F870303BB13E
:204C2000B4F86C3020460133A4F86C30AA2107E02046B4F86C305A1C2344197CA4F86C2060
:204C4000FFF748FFB4F86C20B4F86A30083D9A42ADB2E0D30023A4F86C30A4F86A3084F859
:204C6000703022B070BD00BF860D0020B3DE00082C03002001EB410149009631A0F86E10E7
:204C8000704708B500F0DFF80D23B0FBF3F080B208BD10B5044640F2DC5100F0C1F804F118
:204CA000100204F58571002302F8013B8A42FAD1F022A4F80A31A4F80C31A4F80E2184F8FA
:204CC0001031204610BD122AF8B506460F46144616D900F0B8F8A04214D3013C3046E1B2DE
:204CE00000F0F4F80025EBB2A34205F1010505D23B443046597800F0E9F8F4E70020F8BD17
:204D00000420F8BD0520F8BD37B50D4608242B064CBF012300238DF8073007480DF10701E1
:204D200001220023013CFFF789FA6D0014F0FF04EDB2ECD103B030BD2C030020F8B50446C1
:204D400000F0A3F8B4F80A5108B905B9F8BD15BB294B1B783BB9012384F81031B4F80E31F6
:204D6000A4F80A3114E0204600F0D6F8074684F81051EBB2BB420BD2B4F80A612046731C97
:204D8000A4F80A3100F0C8F8264430740135F0E70023A4F80C31B4F80A315BB31748FFF72B
:204DA00071FA0546082D24D994F810313BB1B4F80C3120460133A4F80C31772107E0204611
:204DC000B4F80C315A1C2344197CA4F80C21FFF79BFFB4F80C21B4F80A31083D9A42ADB2DF
:204DE000E0D30023A4F80C31A4F80A3184F81031F8BDF8BDF8BD00BF860D00202C03002090
:204E000001EB4101890001F51671A0F80E11704708B500F018F8D823B0FBF3F080B208BDB3
:204E2000002310B5038104464381018043600373084604F076FD6060204610BD002303810F
:204E40004381037370474289038992B29BB29A42028803D1037B93B9104612E041890389D7
:204E600089B29BB299423BBF03894089438980B22DBF00898018C01A181A80B201E0002036
:204E80007047824238BF002070474289038992B29BB29A4205D1027B02F0FF03A2B10088E3
:204EA00070474289038992B29BB29A4223BF41890289038803892BBF92B24089D018181A18
:204EC00028BF401A80B2704718467047037B10B503F0FF02BBB9038944689BB2E1540389A2
:204EE000018801339BB2038103899BB2994298BF02810289438992B29BB29A424FF001038F
:204F000003D1037301E0002010BD184610BD438942689BB2D05C7047034610B54289416826
:204F200092B2885C002119735A891C88013292B25A815A89C0B292B2944298BF598110BD56
:204F400000230022037043700023C0E9022300F1430100F11002002302F8013B8A42FAD1CD
:204F6000A0F84830A0F84A3000F111034364704730B500230024002503704370C0E9024545
:204F8000A0F84830A0F84A3030BD0000D0E90223921810B55B41044609B142F00102C4E933
:204FA00002231248D4E902230021024010480B4000215040594000F077F9A8B9636CCD22C1
:204FC0001A70636CF5225A70636C90229A700623A4F84A3001211423A4F848306170054842
:204FE000BDE81040FFF762BB10BD00BFFFFF0F0059DF0C002C03002001483122FEF74CBCE4
:2050000098080020F8B5D0E90267B6197F410446C0E90267B0F84830426C2E4800294FD08A
:2050200046F00106C4E90267D91003F007035518C35C525C13432B70B4F848305A1C113B26
:20504000042BA4F8482013D8D4E9022322480021024022480B4000215940504000F024F977
:2050600003289FBF0623A4F84A301423A4F84830B4F84830B3F5C07F2BD1B4F84A50013D92
:20508000ADB2A4F84A5045B915482946FFF70EFB1448FEF733FC6570F8BD26466B1F5D4213
:2050A0005D4106F8105F20463146FFF7A5FF30460021332205F078FC0023A4F84830F8BD2D
:2050C000D91003F00703C05C535C551823EA0003B1E7F8BDBFDE0008FFFF0F0059DF0C005F
:2050E0002C0300209808002043780BB9FFF74EBFFFF788BF0023821C03704370134610B5DD
:2051000000F12404002102F8011BA242FAD1074A80F8241002F1200152F8044B8A4243F8DF
:20512000044BF9D112881A8010BD00BF35DF00080F4AC1EBC101531810B55C78525C447449
:205140009C7802F00F018474DC78027CC4741C7922F00F0204755C799B794475847D23F050
:205160000F0304F00F040A4323430274837510BDE9DE000810B504461C48FDF7B5F81B48E2
:20518000FDF720F980B36378022B0AD0032B1FD0012B25D1154816492222FDF759F8022344
:2051A0001CE0204694F82410FFF7C2FF0F48A11C2222FDF74DF894F82430052B06D100237B
:2051C00084F8243023787BB9032307E0013309E0064808492222FDF73BF80023637010BD39
:2051E0000023637084F8243010BD00BF8C0D0020C7DE000813DF000808B50D4B1B785C2BCE
:2052000010D0622B12D101780A4839B10121FDF751F8BDE808400748FDF766B8BDE80840EF
:20522000FDF748B8BDE80840FFF7A4BF08BD00BF300C00208C0D0020012A10B513460DD174
:205240000C78611E4C424C4104704CB142785AB9064A12785C2A07D1437005E0042010BD31
:205260000348022100F0FCFD002010BD300C00202C030020014B185C704700BF57DF0008CB
:20528000084BC0F30721C2B29A5C595C82B01144C0F307429A5C000E185C0A441044C0B2B2
:2052A00002B0704757DF0008114B82B0CDE90001C2B2C0F307219A5C595C1144C0F30742B7
:2052C0009A5C000E185C0A4410449DF804209A5C10449DF805209A5C10449DF806209A5CFC
:2052E00010449DF807209B5C1844C0B202B0704757DF000838B50023CD0883810446C381BB
:2053000001804360836003744374284604F009FB6060284604F005FBA060204638BDC2892A
:20532000838992B29BB29A42028803D1037C93B9104612E0C189838989B29BB299423BBFD0
:205340008389C089C38980B22DBF80898018C01A181A80B201E000207047824238BF00201C
:205360007047C289838992B29BB29A4205D1027C02F0FF03A2B100887047C289838992B23D
:205380009BB29A4223BFC1898289038883892BBF92B2C089D018181A28BF401A80B270475B
:2053A00018467047037CF0B51BB1012343740020F0BD858983894668C5F3CC051F4CC3F3CE
:2053C000CC0331B1F75C818901F00701635C3B4306E0F35C818901F00701615C23EA010383
:2053E0007355818983898568C1F3CC01C3F3CC0332B1EE5C828902F00702A35C334306E04E
:20540000EB5C828902F00702A25C23EA02036B548389028801339BB2838183899BB29A4220
:205420009CBF002383818289C38992B29BB29A424FF0010308BF03741846F0BD57E000085B
:20544000F0B503468489C089A4B280B2844204D11C7C04F0FF0004B9F0BDD8895C68C0F318
:20546000CC00275CDE89DC89134DE44306F00706A85D04F00704384020410870D9899868D0
:20548000C1F3CC01465CDC89D88904F00704C043295D00F0070031400141117000211974C2
:2054A000DA891888013292B2DA81DA8992B2904200D8D9810120F0BD57E0000803460022F4
:2054C000407C5A74704700230022037043700023C0E9022300F18B0100F11002002302F892
:2054E000013B8A42FAD1A0F89030A0F8923000F11103C0F88C30704730B5002300240025A6
:2055000003704370C0E90245A0F89030A0F8923030BD000000000000D0E90223921810B589
:205520005B41044609B142F00102C4E9022314A3D3E90023D4E9020101F0FF015040594054
:20554000FFF7B2FE022814D800230B49D4F88C20595CD1540133052BF7D1A4F8923001211A
:205560002823A4F8903061700448BDE81040FFF79DB810BDAFF3008067E000082C0300209A
:205580004D63C971D400000001487922FEF7B0B89808002000000000F8B5D0E90267B619AE
:2055A0007F410446C0E90267B0F89030D0F88C202F4800294ED046F00106C4E90267D910F9
:2055C00003F007035518C35C525C13432B70B4F890305A1C253B042BA4F8902012D8D4E93F
:2055E000020121A3D3E9002301F0FF0159405040FFF75AFE04289FBF0523A4F89230282342
:20560000A4F89030B4F89030B3F5707F2BD1B4F89250013DADB2A4F8925045B915482946BC
:20562000FFF744F81448FEF795F86570F8BD26462B1F5D425D4106F8105F20463146FFF79D
:20564000A3FF304600217B2205F0AEF90023A4F89030F8BDD91003F00703C05C535C551886
:2056600023EA0003B2E7F8BD4D63C971D40000005FE000082C0300209808002043780BB939
:20568000FFF74ABFFFF788BF024630B500240025E2E8024500F15001002302F8013B8A42E0
:2056A000FAD142F20F72A0F87430A0F87630A0F87830A0F87A2080F87C3080F87D3080F8BD
:2056C0007E3080F87F3080F8803080F8813030BD0023A0F8763080F87C3080F87D3080F895
:2056E0007F30A0F8783042F20F73A0F87A307047D0B530A3D3E900234FF6FF774FF0FF36A6
:20570000044603C83040394050405940FFF7CCFD032827D9D4E9000128A3D3E900233040A0
:20572000394050405940FFF7BFFD03281AD9D4E9000124A3D3E90023304039405040594081
:20574000FFF7B2FD03280FD9D4E900011FA3D3E900233040394050405940FFF7A5FD03285D
:2057600002D9D0BD402300E0202384F87C30B4F8743003F2A51292B2B2F5107FA4F876305B
:2057800001D3A3F19B02A4F8782003F16C0292B2B2F5107F07D3A3F5EA73A4F87A30044B90
:2057A00000221A60D0BDA4F87A20F8E7AFF30080880D002057D77FF7D7D50000F5F75F7FBA
:2057C00055D70000FD7DD55D7D7F00005F5DF5D5FF7D00002DE9F0430027FCB2944280F08F
:2057E000E580DFF8CCE100241C7000EBD10601F007041EF80450347A4E1C2C40CD43B6B2EC
:20580000B6F5107F05F0070528BFA1F23F2144FA05F428BF8EB2E4011C7006F0070500EBB7
:20582000D601097A1EF8055001370D40F14301F007010D4144EA8515741C1FFA84F9B9F507
:20584000107F24BFA6F23F261FFA86F9EDB21D7000EBD90409F0070194F808C01EF80110D1
:2058600009F1010401EA0C0C6FEA09011FFA84F801F00701B8F5107F4CFA01FC45EA4C1526
:2058800024BFA9F23F241FFA84F8E9B2197000EBD80608F00704357A1EF804400133254000
:2058A0006FEA080404F00704254141EA051508F101011FFA81FCBCF5107F24BFA8F23F212B
:2058C0001FFA81FCECB203F8014C0CF0070500EBDC011EF805600D7A6FEA0C01354001F0AE
:2058E00007010D4144EAC5050CF101041FFA84F8B8F5107F24BFACF23F241FFA84F8EDB26F
:2059000003F8015C00EBD804267A6FEA080408F007011EF8011004F007043140214108F171
:2059200001041FFA84FCBCF5107F28BFA8F23F2445EA810128BF1FFA84FCC9B203F8011CE1
:2059400000EBDC060CF00704357A1EF8044025406FEA0C0404F00704254141EA45050CF1C5
:2059600001018EB2B6F5107F24BFACF23F218EB2ECB203F8014C06F0070500EBD6011EF8CA
:2059800005E00D7AF1430EEA050501F007010D41711C89B2B1F5107F44EA050428BFA6F26B
:2059A0003F2103F8014C28BF89B216E7BDE8F0836CE0000880F87E10704700000A4602485D
:2059C00001212223FDF73CBE9808002073B50D46B0F8742004468A49D31035B102F0070616
:2059E0001844895D007A084306E002F00700095CE018007A20EA010023441872D4E9000130
:205A0000001849410DB140F0010094F87F30C4E900011BB92046FFF76BFE1BE0B4F8760056
:205A200000F23E239BB2B3F5107F00F1020189B224BF831E9BB2B1F5107F24BFA0F23E2186
:205A400089B28B4202D29A4204D301E09A42E1D28A42DFD9B4F87420B4F87A309A4240F021
:205A6000BA8094F87C3004F1510584F8503020462B46B4F878102122FFF7ACFE94F87C3047
:205A8000402B59D101A8FCF7B0FE0DF106020DF1070301A82946FCF7D5FE9DF8062094F8F4
:205AA0007E309A4240F09480002394F8502084F87D3084F880309DF807301A4384F850208F
:205AC0000A2B30D8DFE803F01E222B2F2F2F0610102F1000204604F15001FFF76FFF02233D
:205AE00084F87F3000230AE094F87F30022B6FD1204604F15001FFF761FF9DF8073084F87C
:205B0000813065E094F87F30012B04D1204604F15001FFF753FF012384F87F3058E094F84C
:205B20007F30012B54D1204604F15001FFF746FF2046FFF7CDFD4BE0202B0DD1204604F1A9
:205B40005001FFF73BFF012384F87F30002384F87D3084F880303BE094F87F3073B194F8F7
:205B60007D300133DBB20C2B84F87D3006D925480121FDF79BFD2046FFF7AAFD94F87F301F
:205B8000012B18D194F880301E48042B8DBF20230133DBB284F8503087BF002384F880303E
:205BA00084F8803084F85030012104F150022223FDF746FD0CE0022B0AD194F881303BB1BB
:205BC000214643F0400301F8503F2046FFF7F6FE002384F87C30B4F8743094F87F10013326
:205BE0009BB2B3F5107F28BF00230031A4F87430054818BF0121FEF759FD02B070BD00BF77
:205C00006CE00008980800202C03002010B51F24104B11481968E14011F0010118BF0121C7
:205C2000FCF73EFD0C48FCF7DCFD01210A48FCF72FFD0948FCF7D5FD07480021FCF728FDE5
:205C400014F1FF34E4D204480021BDE81040FCF727BD00BF140E00202C03002010B5074CB5
:205C600001212046FCF730FD2046FCF7BAFD2046BDE810400021FCF727BD00BF2C0300200B
:205C800010B50446FFF7C2FF1CB1BDE81040FFF7E5BF10BD2DE9F34100238DF80730037A6F
:205CA0000446002B00F08B80FCF72AFD454B05461A68904200F08380434E186033788BB346
:205CC00080BB424A04F120000DF10701FFF7B8FB3F4B20461A781F4682F001021A709DF8BE
:205CE00007200AB1012100E02946DFF8F080FCF713FD98F80030ABB100BF00BF00BF01218C
:205D00002046FCF7E1FC00BF00BF00BF00212046FCF7DAFC20460021FCF7C2FC002388F8E5
:205D200000303B70337893B9012D10D1294B1B786BB92046FCF7D8FC244B011C18BF0121A5
:205D400004F10C001A788DF80710FFF72BFBDFF8908098F800302BB11D4F3B7813B93378DF
:205D600003B195B1E36C1C4A0133E36413680133136044F61F63226C9A4284BF00232364C4
:205D8000236CE3B10133236419E020461A21FCF725FD20460121FCF797FC00BF00BF00BF2B
:205DA00020462946FCF790FC20462946FCF778FC054B88F800501D7001233B70D2E702B06C
:205DC000BDE8F0810C000020860D00202B03002010000020600D0020880D0020180E0020C8
:205DE000280E002010B504460121FCF7DFFC094B1A68094B1A60FFF709FF20460121FCF731
:205E000033FC064B01221A702046FCF779FC0028FAD110BD1C0E0020140E0020180E0020F5
:205E200038B50C4605460021FCF7C0FC094B20461A68094B1A60FFF723FF28460021FCF764
:205E400013FC34B9054B01221A701A780AB100BFFBE738BD300E0020140E0020280E002070
:205E60002DE9F04F612987B004460D46DFF810939D4F04D0062900F005829C4B19706AB104
:205E800000212046FCF728FC2046FCF7A3FC20460121FCF721FC2046FCF79CFCD9F8008092
:205EA000934B944A43449342DFF8D8A2924B01D8924A0AE0924A934942448A42F8D9924A46
:205EC000924942448A4204D9914ACAF80020012203E0904ACAF8002002221A601E688E4B3C
:205EE000012E0BD138680222A0F5C3301A60A03803F010FF78A3D3E900230AE03868012250
:205F0000A0F5C3301A60A03803F004FF74A3D3E9002304F09FF804F02DFA0346039303F043
:205F20001BFF03F029FD04F005FA5FFA80FB84F800B0584604F028FB039B0146184604F04F
:205F40006DFA4FF08E4104F073FB03F005FF734B002203F0A3FD03F00FFD04F0EBF980B2F7
:205F60006080000140EACB406D4B40F09040012E1860404605D103F0CDFE57A3D3E90023B9
:205F800004E003F0C7FE56A3D3E9002304F062F804F0F0F9834603F0DFFE03F0EDFC04F0F9
:205FA000C9F95FFA80F884F80480404604F0ECFA0146584604F032FA4FF08E4104F038FBB4
:205FC00003F0CAFE554B002203F068FD03F0D4FC04F0B0F980B2E080000140EAC840514B2B
:205FE00040F08040042D186058D012D8022D26D033D8012D40F0C8804B4B4FF00D0B1B8890
:020000040800F2
:206000004A4AB3FBF6F6F60446F0100648494948C0E0062D06D050D3612D40F0B580464B9A
:206020001B780EE0454B4FF00D0B1B88444AB3FBF6F6F60446F0005642494348AAE0434B79
:206040001B88B3FBF6F6F60446F0005646F0700640F29D3B3E4A3F492DE03F4A94F8343031
:206060001288002BB2FBF6F63C4B3D483D4908BF18463D4B4FEAC64608BF4FF4012341EAE5
:20608000030146F0005614BF4FF418734FF4966343F00D0B46F070062D4A7BE0334B40F21A
:2060A000FD2B1B882A4AB3FBF6F6F60446F000562F4946F070062A486CE02E4B40F2AD1B2C
:2060C0001B88234AB3FBF6F6F60446F0005646F07006294929485DE00000000000203C4127
:2060E0000000000000204C41000E00202A03002000BC6AF7FF083D00240E002041501F0213
:206100004053F2F27F8D5B008019D0CDFFF26F0641505700415053002C0E00200000E03FC0
:20612000300E00201C0E0020200E00203A47960C942AA80093414C2A06000020100E002032
:206140003A479614845A168093004F2A080E00202A479E0434270685060E002093C04C2A68
:20616000D3804C2A3403408100240600220E0020342B6600040E0020349F740013C14C2A5C
:20618000F40D00200C0E00204FF0000B5A46594658465E46DAF80030DFF818810592C8F810
:2061A000003004910390FFF731FDFFF757FD0398C8F80000FFF72AFDFFF750FD0499C8F801
:2061C0000010FFF723FDFFF749FD3549C8F80010FFF71CFDFFF742FD42F2F541C8F8001091
:2061E000FFF714FDFFF73AFD2046FCF7EFFA20460121FFF715FE2B490978490341F4C4510D
:2062000041F002010E43C8F80060FFF7FFFCFFF725FD0E21C8F80010FFF7F8FCFFF71EFDD6
:206220002149C8F80010FFF7F1FCFFF717FD059AC8F80020FFF7EAFCFFF710FD3B22C8F8BC
:206240000020FFF7E3FCFFF709FD4FF48672C8F80020FFF7DBFCFFF701FDC8F800B0FFF70B
:20626000D5FCFFF7FBFC114BC8F80030FFF7CEFCFFF7F4FC062D10D1019BC9F80030029B30
:206280003B600AE0D9F8003001933B680293084B1B68C9F800303B60F1E507B0BDE8F08F99
:2062A000160E0705FC0D0020E93102000F000E00F80D0020140E0020014B890819707047C8
:2062C000FC0D00202B2041431248C909018017214A431149D2090A809DF80C100F4A09B1D1
:2062E000DB0800E09B0813809DF80020162353430B4ADB0913809DF804200D235343094A83
:20630000DB0913809DF80820A0235343064ADB0913807047200E0020080E0020060E0020BA
:20632000220E0020040E0020100E002000000000F8B5474D474B2968474A0B449342064638
:20634000464B474C01D8474A0AE0474A47480A448242F8D9464A0A4446498A4203D9464A1D
:206360001A60012202E0454A1A600222226022681B68012A424F434A0CBF02210121116018
:206380003B60FFF743FCFFF769FC3F4B21681A783E4B520313433E4A1288B2FBF1F243EA1A
:2063A000C2433B60FFF732FCFFF758FC23682868012B05D103F0AEFC21A3D3E9002304E08E
:2063C00003F0A8FC20A3D3E9002303F043FE03F0D1FF054603F0C0FC03F0CEFA03F0AAFF3C
:2063E000C4B23471204604F0CFF80146284604F015F84FF08E4104F01BF903F0ADFC254B89
:20640000002203F04BFB03F0B7FA03F093FF80B2F0800001204B40EAC44040F08040186054
:206420001E4B30461B781BB1BDE8F840FFF7DABC0121BDE8F840FFF7F3BC00BFAFF3008030
:206440000000000000203C410000000000204C41F40D002000BC6AF7FF083D000C0E002036
:20646000240E002041501F024053F2F27F8D5B008019D0CDFFF26F064150570041505300D2
:20648000140E00202C0E0020FC0D0020F2180020080E00200000E03F1C0E0020860D0020BB
:2064A00010B5044640F2DC51FEF7BAFC04F1100204F14C01002302F8013B8A42FAD1F02278
:2064C000A4F84C30A4F84E30A4F8502084F8523084F85330204610BD312A70B506460C4630
:2064E0000ED1FEF7B0FC2F280CD904F1300514F8011F3046FEF7EAFCAC42F8D1002070BD35
:20650000042070BD052070BD37B50D4608242B064CBF012300238DF8073007480DF10701D9
:2065200001220023013CFDF789FE6D0014F0FF04EDB2ECD103B030BD2C03002070B504462F
:20654000FEF7A3FCB4F84C3008B903B970BD13BB374A12784AB984F85330B4F850300122AB
:2065600084F85220A4F84C3012E084F8523084F853303025B4F84C602046731CA4F84C306C
:20658000FEF7CAFC013D264415F0FF053074F1D10023A4F84E30B4F84C30002B47D0254815
:2065A000FDF770FE0546082D40D994F852304BB120465F21FFF7A8FFB4F84E300133A4F859
:2065C0004E3013E094F85320B4F84E3032B15A1CA4F84E20184A2046D15C05E020465A1C08
:2065E0002344197CA4F84E20FFF78EFFB4F84E20B4F84C30083D9A42ADB2D4D394F852309B
:206600005BB1012384F85330002384F85230A4F84E300323A4F84C30C5E7A4F84E30A4F870
:206620004C3084F8533084F8523070BD70BD70BD860D00202C03002074E0000801EB4101CE
:20664000490001F59671A0F85010704708B5FEF7FAFB3023B0FBF3F080B208BD024A002357
:206660001380024A13807047340E0020380F0020024A00231380024A138070473A10002026
:20668000360F0020064B1888064B80B21A8893B2984286BF03F58072101A181A80B27047EC
:2066A000380F0020340E0020064B1888064B80B21A8893B2984286BF03F58072101A181A51
:2066C00080B27047360F00203A10002008B50348802100F052FF0028F9D108BD00440040DD
:2066E00010B50446FFF7CEFFFF2816D80C4B0D491A880D4892B28C541A8840F2277101324C
:2067000092B21A801A8892B2FF2A84BF00221A80012200F05AFE012010BD002010BD00BF88
:20672000340E00203A0F00200044004010B5294840F2255100F021FFE0B1264800F0A4FE8B
:206740000446FFF7B1FFFF280FD8234B23491A88E4B292B28C541A88013292B21A801A88B0
:2067600092B2FF2A84BF00221A801A4840F2255100F022FF174840F2277100F0FEFE38B392
:20678000174B1988174B89B21A8892B2914212D01A88154992B2895C1A88C9B2013292B201
:2067A0001A801A880B4892B2FF2A84BF00221A8000F066FE05E0074840F22771002200F07A
:2067C00004FEBDE81040034840F2277100F0F4BE10BD00BF004400403A100020360E00202D
:2067E000340E0020380F00203A0F0020F0B5074687B00520012100F093FC01214FF40030E3
:2068000000F09AFC262301248DF8043001A80F238DF805308DF80630214D8DF8074000F051
:20682000DDFE684601F00DF818238DF8033004260323284669468DF80230ADF8006000F0CD
:20684000B2FF082369462846ADF800308DF8036000F0A9FF02A800F08BFDA5F54445002382
:20686000ADF80C30ADF80E30ADF81030ADF8143028460C2302A9ADF81230029700F022FDAF
:206880002846214600F095FD284640F22551224600F09BFDFFF7E2FEFFF7EAFE07B0F0BD83
:2068A0000008014008B5FFF7FFFE003018BF012008BD0000084B09491A8892B2885C1A88E1
:2068C000C0B2013292B21A801A8892B2FF2A84BF00221A80704700BF360F0020360E0020E8
:2068E000013938B5451E4418A54204D015F8010FFFF7F6FEF8E7044840F22771BDE83840DE
:20690000012200F062BD00BF00440040012902D0032903D07047034801F03EBA1046FFF7D0
:2069200065BF00BF48100020012908B504D0032907D1FFF7B7FF08BD0348BDE8084001F0A3
:206940008DB9002008BD00BF48100020012908B505D0032908D1BDE80840FFF7ABBF03487C
:2069600001F08DF9C0B208BD002008BD4810002010B501299DF8084002D003290BD010BD9A
:2069800011460A481A4601F02BFA6CB1BDE81040064801F055BA10461946FFF7A1FF1CB160
:2069A000BDE81040FFF792BE10BD00BF4810002000230022037043700023C0E9022300F14B
:2069C000EB0100F11002002302F8013B8A42FAD1A0F8F030A0F8F23000F11103C0F8EC308D
:2069E000704730B500230024002503704370C0E90245A0F8F030A0F8F23030BDD0E902233C
:206A0000921810B55B41044609B142F001024FF6FF71C4E90223D4E902230B4045F2755181
:206A20004FF0FF3002400F4859405040FEF73CFC022815D800230C49D4F8EC20595CD154B8
:206A40000133062BF7D10423A4F8F23001213023A4F8F03061700548BDE81040FDF726BE08
:206A600010BD00BFFF77FFF577E000082C0300200148D922FCF7C0BE98080020F8B5D0E997
:206A80000267B6197F410446C0E90267B0F8F030D0F8EC204748002900F0828046F001061F
:206AA000C4E90267D91003F007035518C35C525C13432B70B4F8F0305A1CA3F24633022B32
:206AC000A4F8F02027D8D4E902234FF6FF710B4045F275514FF0FF300240374859405040D4
:206AE000FEF7E2FB042816D82146012301F8103F32486422FCF74EFE00233149D4F8EC2023
:206B0000595CD1540133062BF7D10423A4F8F2303023A4F8F030B4F8F0302E3B9BB2042BC9
:206B200016D8D4E902234FF6FF710B4045F275514FF0FF300240204859405040FEF7B4FBA3
:206B400004289FBF0423A4F8F2303023A4F8F030B4F8F030B3F5D86F2BD1B4F8F250013DD4
:206B6000ADB2A4F8F25045B916482946FDF79EFD1248FCF773FE6570F8BD2646EB1E5D4222
:206B80005D4106F8105F20463146FFF771FF30460021DB2203F008FF0023A4F8F030F8BD85
:206BA000D91003F00703C05C535C551823EA00037FE7F8BD7DE00008FF77FFF598080020FD
:206BC00077E000082C03002043780BB9FFF716BFFFF754BF10B504464FF47A71FEF720F969
:206BE00004F1100204F1D801002302F8013B8A42FAD14822A4F8D830A4F8DA30A4F8DC2084
:206C000084F8DE30204610BD08B5B0F8D83013B9FEF73BF900B1012008BD442A70B50646DF
:206C20000C460ED1FEF70FF943280CD9651E433415F8011F3046FEF749F9A542F8D1002032
:206C400070BD042070BD052070BD000037B50D4608242B064CBF012300238DF8073007486B
:206C60000DF1070101220023013CFDF7E7FA6D0014F0FF04EDB2ECD103B030BD2C030020F7
:206C800070B5B0F8D85004467DB9FEF7FEF860B1254B1B78C3BB012384F8DE30B4F8DC309C
:206CA000A4F8D8300023A4F8DA30B4F8D830D3B31E48FDF7E7FA0546082D24D994F8DE30DB
:206CC0003BB1B4F8DA3020460133A4F8DA30AA2107E02046B4F8DA305A1C2344197CA4F8F6
:206CE000DA20FFF7B3FFB4F8DA20B4F8D830083D9A42ADB2E0D30023A4F8DA30A4F8D830F8
:206D000084F8DE3070BD70BD84F8DE5004F1530604F10F052046FEF7FFF805F8010FB54238
:206D2000F8D14423BCE770BD860D00202C03002001EB41014908483189B296298ABF96235D
:206D4000A0F8DC10A0F8DC30704708B5FEF77BF84423B0FBF3F0C0B208BD024600F59671BF
:206D6000002302F8013B8A42FAD1A0F82C31A0F82E3180F83031704738B5B0F82C3104466B
:206D8000002B37D01C48FDF77DFA05460C2D31D9B4F82E31184803F00701DA10174BA25CB4
:206DA0005B5C0C3D13401BBF0C2200230C22144908BF1449FDF742FA94F83031ADB20133F6
:206DC000DBB2272B84F8303181BFB4F82E310133A4F82E31002388BF84F83031B4F82E213B
:206DE000B4F82C319A42D1D30023A4F82E31A4F82C3138BD38BD00BF2C0300208CE2000885
:206E0000110000203C1000202DE9F04704460E46154600214FF4967203F0C6FD0022082320
:206E2000A4F82C31A4F82E2184F83021D7B2AF4243D200215FFA81FE0C2303FB0EF324487F
:206E400000EB030CC35CB3B316F8078001319845F0D19CF808804FF000474FF0000C5FFA08
:206E60008CF3434527D20C2303FB0E035B6819493B40BB42B4F82C310CF1010C4FEAE309FF
:206E800003F0070A11F80AA014F809100CBF4AEA010121EA0A01B3F5937F04F8091005D952
:206EA0000023A4F82C310420BDE8F0870133A4F82C317F08D3E70132B8E7B4F82C31082BFA
:206EC000EED00533A4F82C310020BDE8F08700BF88E000088CE200080023A0F82C31A0F832
:206EE0002E3180F8303170470D4B1A6842F001021A6059680B4A0A405A601A6822F0847276
:206F000022F480321A601A6822F480221A605A6822F4FE025A604FF41F029A60704700BF15
:206F2000001002400000FFF80C4BB0F5803F1A6822F480321A601A6822F480221A6003D002
:206F4000B0F5802F04D070471A6842F4803202E01A6842F4A0221A60704700BF001002404A
:206F6000034A136823F0F80343EAC0001060704700100240014B1860704700BF0000424217
:206F8000034A536823F47C13194308435060704700100240014B1860704700BF60004242C5
:206FA000034A536823F0030318435060704700BF00100240024B586800F00C00704700BF5E
:206FC00000100240034A536823F0F00318435060704700BF00100240034A536823F4E0631C
:206FE00018435060704700BF00100240034A536823F4605343EAC000506070470010024046
:20700000044B1A7809B1104301E022EA00001870704700BF09100240014B1860704700BF02
:20702000D8004242034A536823F4404318435060704700BF00100240064B002201281A7059
:207040001A7002D0042802D070471870704705221A70704720100240014B1860704700BFCC
:2070600080044242024A136A18431062704700BF00100240014B1860704700BF3C044242AC
:207080001C4A10B5536803F00C03042B01D0082B01D0194B0EE053685168C3F38343CC03F3
:2070A00003F1020302D55168890301D5134900E011494B4303605368114CC3F30313E15C3D
:2070C0000368CB4043605168C1F30221615C23FA01F181605168C1F3C221615CCB40C3601F
:2070E00052680849C2F381328A5CB3FBF2F3036110BD00BF0010024000127A0000093D0090
:20710000210000201D000020044B5A6909B1104301E022EA00005861704700BF0010024064
:20712000044B9A6909B1104301E022EA00009861704700BF00100240044BDA6909B11043A3
:2071400001E022EA0000D861704700BF00100240044BDA6809B1104301E022EA0000D8607E
:20716000704700BF00100240044B1A6909B1104301E022EA00001861704700BF001002403A
:20718000014B1860704700BF40044242014B1860704700BF4C004242014B1870704700BF99
:2071A000071002404209012A074B01D11B6803E0022A0CBF1B6A5B6A00F01F0023FA00F019
:2071C00000F00100704700BF0010024007B5002301933120FFF7E6FF019B01330193019B57
:2071E000B3F5A06F01D00028F3D03120FFF7DAFF003018BF012003B05DF804FB024A536AC4
:2072000043F080735362704700100240034B9B68184214BF01200020704700BF0010024003
:20722000014B1870704700BF0A10024008B5204B98420BD14FF480400121FFF789FFBDE882
:2072400008404FF480400021FFF782BF194B984207D14FF400300121FFF786FF4FF40030F2
:207260001FE0154B984207D14FF480200121FFF77BFF4FF4802014E0104B984207D14FF461
:2072800000200121FFF770FF4FF4002009E00C4B98420BD14FF480100121FFF765FF4FF45C
:2072A00080100021BDE80840FFF75EBF08BD00BF003801400044004000480040004C004088
:2072C0000050004070B50E460446038ACA889BB223F440531343038282890989B38892B28E
:2072E0000B43718922F4B0520B4322F00C0213439BB28381838AB2899BB223F4407386B084
:207300001343838201A8FFF7BBFE039B049D174A3168944218BF1D46A38919226A431BB290
:20732000002BB4BF4D008D00B2FBF5F56426B5FBF6F00001010906FB1153A28912B2002A95
:20734000ADBF1A01D90032313232B5BFB1FBF6F2B2FBF6F302F0070203F00F03B4BF1043A2
:20736000184380B2208106B070BD00BF003801404FF4165303600C2200238380C38003819A
:207380004281838170470B8810B54C88028A23438C88C98892B223430B4322F470621343B6
:2073A0009BB2038210BD0023038043808380C3807047838919B19BB243F4005303E023F421
:2073C00000531B041B0C8381704710B5C1F34214012301F01F01012C03FA01F301D10C3029
:2073E00003E0022C0CBF1030143012B10268134302E0026822EA0303036010BD838A9BB2C2
:207400000AB1194301E023EA010181827047038A23F00F031B041B0C0382038A9BB21943F8
:2074200001827047838923F400631B041B0C838183899BB2194381817047838919B19BB2B1
:2074400043F0020303E023F002031B041B0C83817047038A23F020031B041B0C0382038ADD
:207460009BB2194301827047038A19B19BB243F4804303E023F480431B041B0C038270474C
:20748000C1F30801818070478088C0F30800704783899BB243F0010383817047038BDBB297
:2074A0000383038B9BB243EA012101837047038B03F47F430383038B9BB2194301837047A2
:2074C000838A19B19BB243F0200303E023F020031B041B0C83827047838A19B19BB243F0C0
:2074E000100303E023F010031B041B0C83827047838A19B19BB243F0080303E023F008030B
:207500001B041B0C83827047838929B16FEA43436FEA53439BB201E0C3F30E038381704705
:20752000838A19B19BB243F4006303E023F400631B041B0C83827047838A23F004031B04E8
:207540001B0C8382838A9BB2194381827047838A19B19BB243F0020303E023F002031B0419
:207560001B0C838270470388194214BF012000207047C94389B201807047012310B5C1F35B
:20758000421401F01F029C4203FA02F201D1838903E0022C0CBF038A838A9BB21340028836
:2075A00092B23BB1090A01238B40134214BF0120002010BD184610BD090A01238B40DB4318
:2075C0009BB203807047000040F0BF60024B40F40030D860704700BF00ED00E0C27810B5AA
:2075E00003780AB3164A03F16043D4684278E443C4F30224C4F1040102FA01F10F22E24067
:20760000847803F5614322400A431201D2B283F8002303780122590903F01F0302FA03F3E7
:20762000084A42F8213010BD5A09012103F01F03994002F12003034A42F8231010BD00BFD1
:2076400000ED00E000E100E021F0604121F07F01014B08439860704700ED00E0044B1A6974
:2076600009B1104301E022EA00001861704700BF00ED00E0044B04281A680CBF42F0040254
:2076800022F004021A60704710E000E0014B1860704700BF00300040014B5860704700BFAD
:2076A00000300040014B9860704700BF003000404AF6AA22014B1A60704700BF0030004078
:2076C0004CF6CC42014B1A60704700BF00300040034BDB68184214BF01200020704700BF39
:2076E0000030004008B5234B984205D104200121FFF72EFD042036E01F4B984205D108205C
:207700000121FFF725FD08202DE01C4B984205D110200121FFF71CFD102024E0184B984211
:2077200005D120200121FFF713FD20201BE0154B984205D140200121FFF70AFD402012E0EF
:20774000114B984205D180200121FFF701FD802009E00E4B98420BD14FF480700121FFF784
:20776000F7FC4FF480700021BDE80840FFF7F0BC08BD00BF00080140000C014000100140C8
:207780000014014000180140001C01400020014008B501200146FFF7DBFCBDE8084001207D
:2077A0000021FFF7D5BCCA78F0B5D40648BF8C780D8802F00F0348BF234315F0FF0F1DD04F
:2077C000016800240126A64006EA0507B74211D14FEA840E0F2606FA0EF621EA0601282AD0
:2077E00003FA0EF641EA060101D1476102E0482A08BF07610134082CE4D10160FF2D1FD9B6
:207800004168002404F108070126BE4006EA0507B74211D14FEA840E0F2606FA0EF621EA8C
:207820000601282A03FA0EF641EA060101D1476102E0482A08BF07610134082CE2D1416002
:20784000F0BD4FF6FF730380022383700423C37070478368194214BF01200020704780681F
:2078600080B27047C368194214BF012000207047C06880B2704701617047416170470AB190
:207880000161704741617047C160704741F48033836181618361836983697047054A1368B3
:2078A00023F07F031B041B0C194341EA00101060704700BF00000140014B1860704700BFF5
:2078C0001C002042002830B5154C00F44015B4BFE3696368B5F5401F82B206D1656823F0F5
:2078E000706325F0706565600EE0C40255BF440D03242401C0F303454CBFAC4002FA04F4BB
:2079000023EA040343F0706319B1410D09018A401343034A0028B4BFD361536030BD00BF90
:207920000000014001F0030301F0FC0101F1804101F5803110B59B008C680F229A4024EA5A
:2079400002028A608A68984002438A6010BD0000014B1860704700BFDC002042044B00228A
:207960001A605A609A60DA60024A5A61704700BF00040140FFFF0F00827970B501680379CB
:20798000002A29D0CE43194A03F18043156803F58233354015605468344054601C682143B9
:2079A000196003689468DD432C409460D1682940D1604179102909BF916801F180421943D0
:2079C000916015BF02F58232D16811680B4316BF0B43D360136070BD03F1804303F58233DD
:2079E0001A6822EA0101196070BD00BF0004014000230C22036003714271837170470000C7
:207A0000024A136918431061704700BF00040140034B5B69184214BF01200020704700BF21
:207A200000040140014B5861704700BF00040140054B1A685B69034004D0104214BF01204E
:207A4000002070471846704700040140014B5861704700BF00040140374B82B01A6842F0CD
:207A600001021A605968354A0A405A601A6822F0847222F480321A601A6822F480221A60C5
:207A80005A6822F4FE025A604FF41F029A600022009201921A6842F480321A601A6802F453
:207AA00000320192009A01320092019A1AB9009AB2F5A06FF2D11A6812F4003218BF01226D
:207AC0000192019A012A04D01D4A1E4B9A6002B070471D4A116841F010011160116821F029
:207AE00003011160116841F0020111605A685A605A685A605A6842F480625A605A6822F48F
:207B00007C125A605A6842F4E8125A601A6842F080721A601968084A8901FBD5516821F05A
:207B200003015160516841F0020151605A6802F00C02082AFAD1C7E7001002400000FFF83C
:207B40000020000800ED00E000200240114A124B516801F00C01042901D0082901D00F4907
:207B60000EE051685068C1F38341C00301F1020102D55068800301D5094800E0074841438A
:207B8000196052680749C2F30312895C1A68CA401A607047001002404400002000127A00B4
:207BA00000093D003100002038B504460D46AC4203D254F8043B9847F9E738BDFEE70000BD
:207BC00008B5104A104B11498B4204D252F8041F43F8041BF7E7124812494FF000028842D1
:207BE000B8BF40F8042BFADBFFF736FF08480949FFF7DAFF08480949FFF7D6FFBDE80840DC
:207C0000FAF7F4BE60E30008000000208401002048E3000848E3000848E3000854E30008D9
:207C2000880100205013002082B000230193019A074B9A4202D8019B0133F7E70549064B3F
:207C4000CA6802F4E0621343CB60BFF34F8FFEE79F86010000ED00E00400FA0500F0FABB29
:207C600007B501210DF1070000F016FC01280CBF9DF807004FF0FF3003B05DF804FB07B55E
:207C800001210DF1070000F025FC10B19DF8070001E04FF0FF3003B05DF804FB0B7810B5B1
:207CA000222B2DD1174C00F061FC2378032B10D8DFE803F00602060B002808BF022307E04A
:207CC000002814BF0123032302E0002818BF0123237000F067FCB0F5966F11D12378022B20
:207CE0000ED145F25550FFF7D1FC0020FFF7D4FC0A20FFF7D7FCFFF7E3FCFFF7D9FCFEE7A8
:207D000010BD00BF4C1000201D4B73B51A78022A34D103221A7000F09DFB03282ED900F0AF
:207D200099FB0422011F01A800F0EEFB9DF80430312B23D19DF80530452B1FD19DF80630D9
:207D4000412B1BD19DF80730462B17D10D4B4FF0C2466FF0060543F001030B4C20468546DE
:207D60004FF001001946324604B402B401B401B401B401B401B401B4AE46704702B070BDB6
:207D80004C100020297C000800080020014B0360704700BFA0E2000808B507484FF48061B3
:207DA00000F004FB0120054900F0F2FABDE808400220034900F0ECBA000C0140097D0008BD
:207DC0009D7C000808B505484FF4806100F018FBBDE808400320002100F0DABA000C01404F
:207DE00070B515460E4669B1074B1B681B7B052B08D10024AC4205D23019291B00F025FB9B
:207E00000444F7E7002070BD0801002007B502AB03F8011D19460122FFF7E2FF002003B018
:207E20005DF804FB70B50E4615460024AC4205D23019291B00F04EFB0444F7E7204670BDB2
:207E400013B5044600F006FB30B120460DF107010122FFF7E7FFF5E702B010BD08B500F0CB
:207E60000FFBC0B208BD000008B5064B1B681B7B052B05D100F07AFB003018BF012008BD42
:207E8000002008BD0801002000F070BB00F076BB014A024B1A607047A0E2000848100020CD
:207EA00030B501F10051013201F54051521049000023934200F1020009D010F8015C10F804
:207EC000024C44EA052421F823400133F1E730BD10B501F10051013201F54051521049001B
:207EE0000023934205D051F8234020F813400133F7E710BD800000F1804000F5B840036836
:207F000023F4804323F0700343F4004343F08003594001607047000018B9034B07221B6855
:207F20001A820248704700BF3C130020D000002037B5114B1A681C46127802F07F02212A12
:207F400001D0022016E0A0F12003012B0B4B0C4D1B6888BF002523B102A901F8010D022012
:207F60009847002DEDD0236800249D615C822046A847204603B030BD3C1300206012002051
:207F8000197F000813B5104B1A68137803F07F03212B14D1022808D0222801D0022405E043
:207FA000D3780A4A03F0030313700024084B1B6833B102A901F8010D0220984700E002240F
:207FC000204602B010BD00BF3C1300204D1000206012002021B901288CBF02200020704738
:207FE00002207047044B1B689B7A1BB1034B05221B681A73704700BF3C1300200801002062
:020000040800F2
:20800000024B04221B681A73704700BF08010020054B1B68DB78032B04D8044901EBC30111
:2080200000F046BE002070473C1300209C000020014900F03DBE00BF48000020014900F0B4
:2080400037BE00BFFC000020124B37B51B680024114D9C72114B286801224FF4E0511A64F3
:208060001C645C6419644FF43F415C640160196414238DF8043001A80F238DF805308DF8D8
:2080800006308DF80720FFF7A9FA2B681C7303B030BD00BF3C13002008010020005C0040B0
:2080A0002149224B0A681B6870B59B1A13F0FF030C461F4905D10A78013AD2B20A70FAB11F
:2080C00070BD0120087000200646402B194D28BF4023984210DA184910F0010F895C02F146
:2080E0000102C9B21CBF46EA01212960D2B20CBF8EB204350130ECE7D90748BF2E60226089
:208100000E490F4A086D40000244106813604B6823F4E04323F0400343F4004343F0800356
:2081200083F030034B6070BD681200205011002058120020806100404E100020005C0040E1
:208140001460004070B5104A104C136824681C1BE4B2C4F1FF048C4228BF0C4694B1002197
:208160008DB2A54201F1010105D2465D084DEE540133DBB2F4E71360064B1B781B0601D5EA
:20818000FFF78EFF204670BD50110020681200204E100020581200201B491C4A0B68106DEC
:2081A00002F23C4240002DE9F0411458002216460846174DC4F30904A2420ED2D10758BFB3
:2081C0002978144F4CBF310A2E88F95403F1010358BF0435DBB20132EEE70F4A036012683F
:2081E0009B1ADBB2BF2B04D803204FF44051FFF781FE0A4B1B6823B1BDE8F0410120002147
:208200001847BDE8F08100BF64120020005C004020620040581100205C120020541100209A
:208220002DE9F84348F68F1648F280074B4B4C4C1B6800254FF0C0089D7283F809802565CF
:2082400023684FF04009334043F4007323602368284623F4E04323F040033B4383F01003DE
:208260002360226D3F4B520013441A68C3F80090236D5B0003F1804303F5C0431A6880222B
:208280001A60236823F4E24323F070031B041B0C2360354B1B6893F82C1000F023FB284608
:2082A0004FF44051FFF726FEA3680220334043F4C063A360226D2D4B520013441A684FF45E
:2082C00080721A60A368294623F4E04323F040033B4383F02003A360FFF70CFEE3680320A3
:2082E0003340E360226D224B520013441A684FF488721A60494600F0F5FA03204FF4405185
:20830000FFF7F8FD636801201E406660226D194B520013441A68C3F800806368294623F4B8
:20832000E04323F040031F4387F020076760FFF7E1FD114B01221B6828461A7300F0BAFE84
:208340000E4BFF221D600E4B1D600E4B1D600E4B1D600E4B1A70BDE8F88300BF3C13002073
:20836000005C0040086000401413002020600040386000401060004008010020641200206B
:208380005C120020501100206812002058120020C20744BF034B1960830744BF024B1960C4
:2083A000704700BF541100206012002037B505460C4608200121FEF7B3FE01A8FFF741FADD
:2083C00003238DF806302846102301A98DF80730ADF80440FFF7E7F9284621460022FFF709
:2083E0004EFA044B04491868044A00F067F903B030BD00BF0801002080000020B40000207F
:2084000037B505460C4614238DF804300F238DF805308DF8063001A800238DF80730FFF7BE
:20842000DDF8284621460122FFF729FA03B030BD07B58DF807000DF107000121FFF782FED1
:208440000028F8D003B05DF804FB09B1FFF77ABE08467047034A044B1B681068181AC0B2FD
:20846000704700BF5C12002064120020034A13785BB2002BCCBF10780020704758120020DE
:20848000034A044B1B681068181AC0B2704700BF68120020501100200B4B10B51A680B4B1D
:2084A0001B689B1ADBB2994228BF194603461C1A8C4206DA064CA45C013203F8014BD2B259
:2084C000F5E7084610BD00BF5C120020641200205811002010B5FFF7DFFF094A0446136888
:2084E0000344DBB21360074A1268D31ADBB2402B04D803204FF44051FFF7FCFC204610BD91
:208500005C120020641200200C4B30B51B680C4C0B442468DBB2E41A8D18E4B2A54288BF51
:20852000621A01460C1A944206DA064CE45C013301F8014BDBB2F5E7104630BD5C12002057
:20854000641200205811002008B5FFF783FF28B1044B054A1B68D05CC0B208BD4FF0FF30FC
:2085600008BD00BF5C12002058110020024B187800F00100704700BF4D100020024B1878C2
:20858000C0F34000704700BF4D100020044B1A6802601A7902715A799B7942718371704777
:2085A000D0000020014B1868704700BFD0000020014B1879704700BFD0000020014B587939
:2085C000704700BFD0000020014B9879704700BFD0000020064B074A0749136002221A725D
:2085E000064B074A1360074A1B681160184700BF1C1300203C130020D800002050000020DD
:208600001413002038130020294B072818BF18701A78052A49D8DFE802F003131E222A3556
:208620004FF6FB71234A106C014011644FF43F41116406221A70204B1B685A7B1A737047F9
:208640004FF6FB711B4A106C014011644FF43F41116404222AE002225A70032226E05A787F
:20866000013AD2B25A705B780BBB04221BE011490A6C92B242F010020A6405221A700A2214
:208680005A7070475A78013AD2B25A705B7873B94FF6EF73074A116C0B401364064B1B68F4
:2086A0005A7B1A730622024B00E006221A70704746130020005C00400801002070B50446ED
:2086C00015460E464FF400000121FEF735FD084A084B09491A60094B09480B6009496660C6
:2086E00008600221A56011721B68BDE8704018471C1300203C1300201413002050000020BB
:20870000D800002038130020F8B5714D714A2B68546C1B68A4B203F48063234206D06FF42C
:20872000806353646C4B1B685B6898472B681B682340590442BF674A6FF4804151649A04C4
:2087400042BF644A6FF400515164DF0406D5614B6FF4C0525A640020FFF756FF28680268FF
:20876000224016050FD55B490B6C9BB243F0080643F00C030E640B64037B437303230373FC
:208780006FF4C0534B64910542BF524B6FF400715964D30506D54F4B6FF480725A64072068
:2087A000FFF732FF2B681B6803F40043234200F08D80484B596C0A0440F188806FF400429C
:2087C00011F00F065A645CD148F680021E683240002AEED0B2B2414C02F440502080404859
:2087E00002F0300202801A6811F0100F22F4804222F0700242F4004242F0800282F40052E1
:208800001A601A68054622F4E04222F0400242F4004242F0800282F020021A60196801D0F9
:20882000370606D548F60F720A401A6000F062FC0BE040F68F72360502EA01021A6002D5B2
:2088400000F066FA01E000F0CFFB2288214C2B8890B2226899B222F4804222F0700242F4BA
:20886000004242F0800242402260236823F4E04323F0400343F4004343F080034B402360A5
:20888000F8BDB40004F1804404F5B844276838040CD540F68F73226813402A6823609268F1
:2088A00006F18043013B52F823309847390680D548F60F73226806F18046134023602B6842
:2088C000013E5B6853F82630984772E7F8BD00BF08010020005C00401413002042130020C8
:2088E000441300200D4B0E4A1B6D3E2903EBC0004FEA4000024409D94B09C80604BF03F13A
:20890000FF339BB29B0243F4004304E04B08C90748BF01339B021360704700BF005C00405D
